:020000040800F2
:10000000D005002005010008B91C000845160008AD
:10001000191C0008B5030008352000080000000086
:10002000000000000000000000000000E91C0008C3
:100030003D04000800000000BB1C0008411D000832
:100040001F0100081F0100081F0100081F01000810
:100050001F0100081F0100081F0100081F01000800
:100060001F0100081F0100081F0100081F010008F0
:100070001F0100081F0100081F0100081F010008E0
:100080001F0100081F0100081F0100081F010008D0
:100090001F0100081F0100081F0100081F010008C0
:1000A0001F0100081F0100081F0100081F010008B0
:1000B0001F0100081F0100081F0100081F010008A0
:1000C0001F0100081F0100081F0100081F01000890
:1000D0001F0100081F0100081F0100081F01000880
:1000E0001F0100081F0100081F010008DFF810D0E1
:1000F00000F04EF9004800474D210008AFF30080A2
:10010000D00500200648804706480047FEE7FEE786
:10011000FEE7FEE7FEE7FEE7FEE7FEE7FEE7FEE7B7
:10012000A31D0008ED000008D2B201E000F8012B89
:10013000491EFBD270470022F6E710B513460A4667
:1001400004461946FFF7F0FF204610BDF0B480EAE0
:100150000102D40F4200B2EB410F02D20246084620
:1001600011464A0042D0C30DDDB2C1F3C752AD1AE9
:10017000202D35DAC1F3160141F4000204B15242D8
:10018000C5F1200602FA06F12A411044B3EBD05F14
:1001900023D0C4B1012DA0EBC35009DCF0BC4FF05B
:1001A000004202EAC352DBB200F5000000F0C1B821
:1001B000400000F1807000EBC350A0F1807040EA75
:1001C000D170490009E0490841EAC071A0EBC35071
:1001D00000F50000400800EBC350F0BC00F0A0B8F0
:1001E0006142012202EB4101001BF6E7F0BC7047BF
:1001F00081F00041AAE780F00040A7E780EA010211
:1002000010B502F00043400022D04A001FD0010E7A
:1002100001EB1261C0F35600C2F3560240F4000035
:1002200042F40002A0FB022000047F39140400D035
:10023000401C50EA124001D44000491EC2B20C06D4
:1002400004EBD010401C4008802A02D003E00020BC
:1002500010BD20F00100002900DA0020184310BD75
:1002600030B480EA010202F0004530F0004221F093
:10027000004013D090B1C30DD40DC2F31601C0F3EA
:100280001600E41A41F4000140F400027D3491426A
:1002900001D3641C00E04900002C02DA30BC0020CD
:1002A00070474FF400000023914201D3891A0343A1
:1002B00040084FEA4101F7D151B1914202D14FF0CC
:1002C000004105E002D24FF0010101E06FF00101B1
:1002D00003EBC450284430BC00F022B8C10F80EAC0
:1002E000E0700844CA079623002100F022B800F00D
:1002F000004220F00040C10DC0F3160040F40000A1
:100300007F2901DA00207047962903DCC1F19601AC
:10031000C84001E096398840002AF4D04042704736
:100320000029A8BF7047401C490008BF20F0010009
:10033000704710B4B0FA80FC00FA0CF050EA0104E7
:1003400004BF10BC704749B1CCF1200421FA04F479
:1003500011FA0CF118BF012121430843A3EB0C0152
:10036000CB1D4FEA00614FEA102042BF002010BCB5
:10037000704700EBC35010440029A4BF10BC704765
:10038000401C490008BF20F0010010BC704700006D
:10039000064C074D06E0E06840F0010394E80700D2
:1003A00098471034AC42F6D3FFF7A4FE5023000860
:1003B00070230008FEE700002DE9F0414418DDE954
:1003C00006C71444DDE908651C4464443C443444D5
:1003D00064192DD06FF0270E00FB0EF0A1EB011178
:1003E00000EB4100514201EB810100EB81005942D9
:1003F00001EB810100EB41000CEB8C01490007EBA4
:10040000870201EB8201C6EB061201EB420105EB0C
:10041000850201EBC2010D182046FFF75FFF04467D
:100420002846FFF75BFF2146BDE8F041FFF718BF04
:1004300001480068BDE8F08144000020704772B6B2
:10044000FEE7000070B5044600F004F90546601CA4
:1004500002D004480078044400F0FCF8401BA0429D
:10046000FAD370BD240000202DE9F84FDFF8B891D1
:100470000024A9F1040B23460F2709F1040AABF16C
:10048000040EC9E00125A5402A40AA427DD1674E4D
:10049000D1F804C0ACEB0608B44532D014DCBCF192
:1004A000030F3AD009DCBCF1000F2AD0BCF1010FD8
:1004B0001CD0BCF1020F31D11DE0BCF1110F17D0DF
:1004C000BCF1120F2AD119E0B8F5881F19D006DC4B
:1004D000B8F5803F15D0B8F5801F1FD111E0B8F5F1
:1004E000001F0ED0B8F5041F18D10AE0CB6815E044
:1004F000CB681B1D12E0CB6808330FE0CB680C33D0
:100500000CE08B682BB1012B4FF0080303D0456141
:1005100004E0042302E0056100E00023FF2A01D883
:10052000064601E000F104064FEA840501D9A5F171
:100530002005D6F8008007FA05FC28EA0C0803FA23
:1005400005F548EA0508C6F800804D68ED0062D55B
:10055000374DAE6946F00106AE61AD6924F0030681
:1005600005F001050095334D06EB050CDCF808504D
:10057000A607360F07FA06F825EA0805DFF8B8805F
:10058000404503D14FF0000817E044E0DFF8AC80AD
:10059000404502D14FF001080FE0DFF8A48040454C
:1005A00002D14FF0020808E0DFF89880404502D100
:1005B0004FF0030801E04FF0040808FA06F848EA93
:1005C0000508CCF808804D68D9F80060ED024D466A
:1005D00001D5164300E096432E604D68DAF80060BE
:1005E000AD02554601D5164300E096432E604D6896
:1005F000DBF80060AD035D4601D5164300E096438D
:100600002E604D68DEF80060ED03754601D5164397
:1006100000E096432E60641C0D682A46E5407FF496
:1006200031AFBDE8F88F0000080401400000111050
:10063000001002400000014000080140000C014091
:1006400000100140001401400AB101617047090423
:10065000FBE700000148806870470000240000208C
:1006600070B5040025D094F83D00002520B984F829
:100670003C50204600F0E6F9242084F83D00206834
:10068000016821F0010101602068016841F4004126
:1006900001602068016821F40041016000F022FB44
:1006A0004D4A6168914201D84C4900E04C4988426A
:1006B00001D2012070BD4B492368B0FBF1F15E68A7
:1006C00026F03F060E435E606368934206D94FF4FE
:1006D000967359434FF47A73B1FBF3F12368491CC5
:1006E0001E6A26F03F06314319626168914210D8B4
:1006F0004900401EB0FBF1F2521CC2F30B02042A67
:1007000001D2042022E0B0FBF1F0401CC0F30B004A
:100710001CE0A268F2B301EBC10303EB0116431E18
:10072000B3FBF6F35B1C43F480431B0549D092B343
:1007300001EBC10202EB0111401EB0FBF1F0401CC5
:10074000C0F30B0040F4804040F400402168CA69C7
:100750004CF6FF739A431043C861D4E90710014374
:100760002068026822F0C00211430160D4E903014D
:1007700001432068826848F2FF339A431143816045
:10078000D4E9050108432168CA6822F0FF0210433A
:10079000C86001E00EE016E02068016841F0010148
:1007A00001602564202084F83D00256384F83E50D4
:1007B000002070BD01EB4106431EB3FBF6F35B1C4A
:1007C000B3E70120C2E701EB4101401EB0FBF1F0AD
:1007D000401CC0F30B00B7E7A086010080841E0018
:1007E00000093D0040420F002DE9FF4F83B0002576
:1007F000DDE910799A4693460446DDF84880009575
:10080000FFF728FF064694F83D0020287CD11923E5
:10081000012288492046009600F0AAFF0028F5D161
:1008200094F83C0001286FD0012084F83C00206837
:100830000168C90703D1016841F001010160206826
:10084000016821F400610160222084F83D0040200D
:1008500084F83E0025646762A4F82A90608D2085A4
:100860007548E062CDE9008653465A462046049911
:1008700000F000FF00287CD1208DDFF8C0912027F8
:1008800068B1012814D00228206801681ED041F404
:10089000806101602068416980690090BCE0206847
:1008A000416981690091016841F400710160B3E020
:1008B0002068016821F48061016072B62068416996
:1008C00081690091016841F400710AE041F400611E
:1008D000016072B62068416981690091016821F464
:1008E0008061016062B697E0032865D801280CD0CA
:1008F000022843464FF000024946204600960BD09E
:1009000000F036FFA8BB0CE091E03246414620469D
:1009100000F0D4FF68BB72E000F02AFF48BB72B65B
:1009200033E02068016821F48061016072B62068BC
:100930000069616A0870606A401C6062208D401E18
:100940002085608D401E60853D4846F2A8110068F4
:10095000B0FBF1F0C0EBC00000EB80000090401E47
:10096000009007D020684069C04340070DD500982B
:10097000F5E727E044F8305F6773A573206940F01E
:100980002000206162B625731CE02068016841F4F4
:100990000071016020680069616A0870606A401C2B
:1009A0006062218D491E2185618D491E618562B677
:1009B00021680969017026E032464146204600F070
:1009C0007DFF18B1012007B0BDE8F08F20680069F5
:1009D000616A0870606A401C6062208D401E81B2AE
:1009E0002185608D401E608520684269D243520790
:1009F00012D4032903D1016821F4806101602068C9
:100A00000069616A0870606A401C6062208D401E47
:100A10002085608D401E6085208D00287FF464AFA6
:100A200084F83D7084F83E5084F83C50CBE70220B7
:100A3000C9E70000020010000000FFFF04000100F1
:100A40003000002010B586B0002100910191029184
:100A500003910068104988421BD1104CA06940F0F6
:100A60000800A061A069694600F0080004904FF4F6
:100A70004060009012200190032003900848FFF787
:100A8000F3FCE06940F48000E061E06900F480007C
:100A9000049006B010BD0000005800400010024055
:100AA000000C01400248816802781144816070475F
:100AB00024000020074810B5016841F010010160D2
:100AC000032000F067F80F2000F006F800F024F88B
:100AD000002010BD0020024070B50D4D04464FF4BB
:100AE0007A712878B1FBF0F00A490968B1FBF0F09F
:100AF00000F0CEFA48B9102C07D200222146501E31
:100B000000F028F800206C6070BD012070BD00006E
:100B100024000020300000200C4808B5816941F015
:100B200001018161816901F001010091C16941F018
:100B30008051C161C06900F0805000900448416854
:100B400021F0E06141F00071416008BD00100240F9
:100B500000000140F0B40E4B1B680C46C3F30223A7
:100B6000C3F10705042D00D90425191D072901D259
:100B7000002300E0DB1E012606FA05F1491E214094
:100B800099409E40761E16403143F0BC01F05CBA9D
:100B90000CED00E0064900F0070208684FF6FF037D
:100BA000184040EA0220034A1043086070470000E2
:100BB0000CED00E00000FA052DE9F0470F460500B6
:100BC00061D0434E306800F00700B84209D2306867
:100BD00020F0070038433060306800F00700B8426A
:100BE00051D128683B4C810712D5400703D5606876
:100BF00040F4E06060602878000703D5606840F446
:100C0000605060606068A96820F0F0000843606090
:100C10002878C00728D06868012810D021680228E9
:100C200010D0890700292EDA616821F00301014301
:100C30006160FFF70FFD804641F288390DE02168C1
:100C40008903EFE78901EDE7FFF704FDA0EB080159
:100C5000494502D90320BDE8F0876068696800F063
:100C60000C00B0EB810FEFD1306800F00700B84204
:100C70000BD9306820F0070038433060306800F04E
:100C80000700B84201D00120E5E72878400705D5E4
:100C90006068E96820F4E060084360602878000735
:100CA00006D56068296920F4605040EAC1006060A0
:100CB00000F038F86168084AC1F30311515CC8407C
:100CC0000649086006480068FFF706FF0020C2E7F3
:100CD00000200240001002403623000830000020AF
:100CE000280000200448054900684968044AC1F307
:100CF0000221515CC84070473000002000100240C3
:100D0000462300080448054900684968044AC1F3BD
:100D1000C221515CC84070473000002000100240E2
:100D2000462300080E4A51680E4801F00C03042BBC
:100D300011D0082B0FD10C48C1F38343C903C05C09
:100D40000AD55168084AC1F34041921E515C054AD8
:100D50005043B0FBF1F0704704494843704700002E
:100D60000010024000127A002623000800093D000E
:100D70002DE9F84F040070D02078C04DC00749D04D
:100D80006868C0F38100012807D06868C0F381005B
:100D9000022809D16868C00306D52868800339D5C0
:100DA00060680028E7D035E06068B0F5803F0BD080
:100DB00010B1B0F5A02F11D0286820F48030286041
:100DC000286820F4802002E0286840F48030286001
:100DD000606890B1FFF73EFC06460AE0286840F4E0
:100DE00080202860F0E700BFFFF734FC801B6428F8
:100DF00073D828688003F7D50CE0FFF72BFC064674
:100E000005E000BFFFF726FC801B6428F0D82868A7
:100E10008003F7D420789A4E80074FF001094FF0F5
:100E2000000839D5686810F00C0F07D06868C0F367
:100E30008100022809D16868C00306D428688007A9
:100E400014D52069012808D110E02069B0B1C6F896
:100E50000090FFF7FFFB074605E00AE1FFF7FAFB0A
:100E6000C01B0228C4D828688007F7D528686169A4
:100E700020F0F80040EAC10028600DE0C6F80080CC
:100E8000FFF7E8FB074604E0FFF7E4FBC01B02287E
:100E900023D828688007F7D4207800072CD5794814
:100EA000A169D9B1C0F80090FFF7D4FB074604E070
:100EB000FFF7D0FBC01B02280FD8686A8007F7D560
:100EC00071484FF4FA510068B0FBF1F0009000BF98
:100ED0000098411E0091FAD20EE080E0C0F8008038
:100EE000FFF7B8FB074604E0FFF7B4FBC01B02287E
:100EF00075D8686A8007F7D42078400760D5E8691C
:100F00000027C00008D4E86940F08050E861E86933
:100F1000012700F0805000905C480168C90513D497
:100F20000168834641F480710160FFF793FB8246BC
:100F300006E000BFFFF78EFBA0EB0A0064284ED846
:100F4000DBF80000C005F5D5E06801280AD008B13B
:100F5000052813D0286A20F001002862286A20F0B2
:100F6000040002E0286A40F001002862E06841F2D3
:100F7000883B98B1FFF76EFB82460BE0286A40F091
:100F800004002862EEE700BFFFF764FBA0EB0A0154
:100F900059455AD8286A8007F6D50CE0FFF75AFB66
:100FA000824605E0FFF756FBA0EB0A0159454CD8F5
:100FB000286A8007F6D41FB1E86920F08050E86104
:100FC000E06988B36968C1F38101022944D002282D
:100FD000C6F8608004D0FFF73DFB044638E034E0FB
:100FE000FFF738FB074604E0FFF734FBC01B02287D
:100FF0002BD828688001F7D4206AB0F5803F05D14E
:101000006868A16820F4003008436860D4E90801EA
:101010000843696821F4741108436860C6F8609059
:10102000FFF718FB044606E025E000BFFFF712FBC0
:10103000001B022809D828688001F7D51BE000BFF3
:10104000FFF708FB001B022802D90320BDE8F88F38
:1010500028688001F4D40EE00128F7D06868226A7D
:1010600000F48031914204D1616A00F4701088422A
:1010700001D00120EAE70020E8E70000001002406C
:1010800000004242800442423000002000700040D4
:1010900010B5401EB0F1807F01D3012010BD4FF08C
:1010A000E02460610F21601700F0CEFF0020A061F6
:1010B00007202061002010BD10B590F83C20012AC7
:1010C00022D0012280F83C20CA688C6822F4407249
:1010D00022434C6822F4806222430C6822F40062AE
:1010E00022430C6922F4805222434C6922F40052BC
:1010F0002243C969002322F480420A4301684A64FA
:1011000080F83C30002010BD022010BD70B590F872
:101110003C20012A26D0012480F83C40022280F89D
:101120003D2003685A689D6822F070060A683243C1
:101130005A600D4B02689A4208D0B2F1804F05D038
:101140000A4B9A4202D00A4B9A4204D1496825F0D0
:1011500080031943916080F83D40002180F83C10E5
:10116000084670BD022070BD002C01400004004004
:10117000000800402DE9F0410D46040003D094F82A
:101180003D0018B108E00120BDE8F081002084F89E
:101190003C00204600F040F8022084F83D00206822
:1011A000816844F2070291438160211D206800F0AC
:1011B000F9FD226890689169166A2B68AF6903434C
:1011C00040F20330814341EA0721A868EF690843F0
:1011D0004FF6FC418843E96840EA0720014328694B
:1011E0002F6A000140EA0730084369686D6926F0FC
:1011F000220646EA0515294393602268906154F857
:10120000460B0162012004F81F09E0752076E076A4
:101210002077A0750020B7E700B585B000210091C8
:10122000019102910391026818491948B2F1804F67
:1012300019D0184B9A4214D1CA6942F00202CA610D
:10124000CA6902F0020204928A6942F004028A61C9
:10125000896901F004010491C02100916946FFF7FA
:1012600003F905B000BDCA6942F00102CA61CA694A
:1012700002F0010204928A6942F004028A618969DB
:1012800001F0040104910321E7E70000001002408F
:10129000000801400004004070B590F83E6004462C
:1012A00090F83F5090F8423090F84320022021B14E
:1012B00004290ED0012E1BD114E0012E18D1012BD0
:1012C00016D184F83E0084F84200012200212068F3
:1012D00020E0012D0CD1012A0AD184F83F0084F8C6
:1012E000430014E0012D03D1012B01D1012A01D0CB
:1012F000012070BD84F83E0084F83F0084F842006D
:1013000084F8430001220021206800F087FD0122BB
:101310000421206800F082FD2068016841F001018D
:101320000160002070BD000000B585B00021009173
:1013300001910291039100680B49884212D10B4838
:10134000816941F0040181618069694600F004000F
:1013500004904FF4C0600090022001900390044874
:10136000FFF782F805B000BD002C014000100240DC
:101370000008014070B5044690F83C0000260D4678
:1013800001280FD0012084F83C006AB1042A1DD046
:10139000082A2FD00C2A3FD00126002084F83C00D8
:1013A000304670BD022070BD206800F045FD206809
:1013B000816941F0080181612068816921F004019F
:1013C0008161206881692A69114311E0206800F079
:1013D0005BFD2068816941F4006181612068816959
:1013E00021F480618161206881692A6941EA0221D2
:1013F0008161D2E7206800F073FD2068C16941F087
:101400000801C1612068C16921F00401C16120683F
:10141000C1692A69114311E0206800F08DFD206840
:10142000C16941F40061C1612068C16921F4806132
:10143000C1612068C1692A6941EA0221C161ACE742
:1014400010B5040003D094F83D0010B107E001206E
:1014500010BD002084F83C00204600F01FF8022058
:1014600084F83D00211D206800F09CFC012084F8D8
:10147000460084F83E0084F83F0084F8400084F879
:10148000410084F8420084F8430084F8440084F862
:10149000450084F83D00002010BD000008B500683C
:1014A0000649884208D10648816941F4006181619A
:1014B000806900F40060009008BD0000002C01402D
:1014C0000010024010B50446022249B104290ED092
:1014D000082913D094F84100012816D0012010BD2E
:1014E00094F83E000128F9D184F83E200FE094F8EA
:1014F0003F000128F2D184F83F2008E094F8400032
:101500000128EBD184F8402001E084F84120012239
:10151000206800F083FC0F492068884203D1426CA8
:1015200042F4004242642068884208D0B0F1804F03
:1015300005D00949884202D00849884204D181680F
:1015400001F00701062903D0016841F001010160A3
:10155000002010BD002C01400004004000080040A5
:1015600070B5040004D094F84100002510B106E0E5
:10157000012070BD84F84050204600F023F824205C
:1015800084F841002068C16821F40051C160204600
:1015900000F0F4FC2068016921F4904101612068A9
:1015A000416921F02A0141612068C16841F400517C
:1015B000C1606564202084F8410084F842006563BE
:1015C000002070BD30B585B00024009401940294D1
:1015D00003940068174988422AD11748816941F469
:1015E00080418161816901F480410491816941F008
:1015F000080181618069114D00F0080004904020CD
:101600000090022001900320039069462846FEF7CF
:101610002BFF8020CDE90004694628460294FEF79E
:1016200023FF0748416841F0E06141F00401416057
:1016300005B030BD0038014000100240000C0140F0
:1016400000000140FEE701684A69D24352050FD409
:101650006FF480624A61002140F8301F20224273FB
:101660008173026942F00402026101730120704734
:10167000002070472DE9F84F0446006889460B9D0D
:1016800001689846174641F480610160206801684E
:1016900041F48071016000954FF0011B0022594612
:1016A00020460A9B00F064F84FF4007A40B12068AD
:1016B0000068C00501D5C4F840A00320BDE8F88F3C
:1016C000216809F0FE0008612B46284920460A9A45
:1016D00000F096F8F0BB20684169806900902A46C6
:1016E00020460A9900F022F940B1206C04283AD132
:1016F0002068016841F40071016034E0FEB2B8F185
:10170000010F09D02168380A08612A4620460A9943
:1017100000F00CF90028E8D1206806612A4620462E
:101720000A9900F003F90028DFD12068016841F42C
:101730008071016000950022594620460A9B00F006
:1017400017F80028B3D1216809F0FF0040F001002C
:10175000086100E007E02B46044920460A9A00F0A1
:101760004FF80028AAD00120A8E7000002000100DD
:101770002DE9F047984617460D460446C1F3074643
:10178000DDF820902AE000BFB8F1FF3F26D0FEF739
:1017900061FFA0EB0901414502D8B8F1000F1DD14E
:1017A0002068012E16D0806925EA00000004000C94
:1017B00012D00020B84211D1002044F8300F20216F
:1017C0006173A073216941F0200121612073012020
:1017D000BDE8F0874069E7E70120EBE72068012ECC
:1017E0000AD0806925EA00000004000C06D0002021
:1017F000B842C9D00020EBE74069F3E70120F7E7E2
:101800002DE9F047984616460D4604464FF000096C
:101810004FF0200AC1F3074723E020684069C04326
:10182000400515D42068016841F400710160216809
:101830006FF480604861C4F8309084F83DA084F86B
:101840003E90216C41F00401216484F83C9021E039
:10185000701C06D0FEF7FEFEA0EB0800B04203D8D5
:1018600016B1012F1FD021E02068012F15D080690B
:1018700025EA00000004000C18D000BF44F8309F97
:1018800084F80DA084F80E90216941F020012161B7
:1018900084F80C900120BDE8F087406925EA00003B
:1018A0000004000CEAD12068406901E020688069EA
:1018B00025EA00000004000CAFD1ECE72DE9F0416F
:1018C000002590460E460446202728E04069C04384
:1018D000C0060CD454F8301B6FF01000486144F877
:1018E00010596777A577206A2062257714E0FEF704
:1018F000B1FEA0EB0800B04200D886B9206840696C
:10190000C04340060BD544F8305F6773A573206968
:1019100040F02000206125730120BDE8F08120689F
:101920004169C9434906D1D40020F6E770B516468F
:101930000D4604461EE02046FFF785FE08B1012053
:1019400070BD681C16D0FEF785FE801BA84200D82B
:1019500085B920684069C04300060BD5002044F8D3
:10196000300F20216173A073216941F020012161B2
:101970002073E4E720684069C0430006DBD4002000
:1019800070BDF0B50DF1140C08449CE8F000104453
:1019900018442044284430443844012801DC012004
:1019A000F0BD0020F0BD000070B586B000241848DE
:1019B0000094019402940394816941F020018161B3
:1019C000816901F020010491816941F00401816184
:1019D000816901F004010491816941F0080181618C
:1019E00080690C4E00F008004FF47045049000220E
:1019F00029463046FEF728FE01200095CDE9010476
:101A00000220039069463046FEF72EFD06B070BDF9
:101A100000100240000C01400D4810B50B49016058
:101A20000C49416000214FF480428160C0E90312FB
:101A300041618161C1610162FEF712FE002803D09D
:101A4000BDE81040FEF7FBBC10BD00000058004090
:101A50005C000020801A060010B592B000240F949C
:101A60001C2168461094FEF766FB202107A8FEF7AC
:101A700062FB2448224901604721C0E9011440F279
:101A8000E731C0E9031444618461FFF7D9FC08B170
:101A9000FEF7D5FC0F940FA91A481094FFF736FBF8
:101AA00008B1FEF7CCFC6020CDE900040294039459
:101AB000049405940422694612480694FFF75AFCE0
:101AC00008B1FEF7BCFC082269460E48FFF752FC3D
:101AD00008B1FEF7B4FC0794089409944FF4005041
:101AE0000A94CDE90B4007A906480E94FFF7E4FAE3
:101AF00008B1FEF7A4FC0348FFF716FC12B010BDB6
:101B0000002C0140B000002010B58CB024216846A4
:101B1000FEF711FB0024164809944FF080410A9407
:101B2000C0E900144FF6FF71C0E902418021046151
:101B300081610120CDE90004CDE902040A2104916C
:101B4000CDE90540CDE9074169460948FFF712FB99
:101B500008B1FEF774FC099409A905480A94FFF737
:101B6000D5FA002801D0FEF76AFC0CB010BD0000C9
:101B7000F800002010B58CB024216846FEF7DBFA8F
:101B800000241648099414490A94C0E900144FF639
:101B9000FF71C0E90241046184610120CDE90004C4
:101BA000CDE902040A210491CDE90540CDE90741C0
:101BB00069460A48FFF7DEFA08B1FEF740FC0994CF
:101BC00009A906480A94FFF7A1FA002801D0FEF7F8
:101BD00036FC0CB010BD00000004004040010020A5
:101BE0000C4810B50A4901604FF4E1314160002111
:101BF00081600C22C160C0E904128161C161FFF7FC
:101C0000AFFC002803D0BDE81040FEF718BC10BDA3
:101C10000038014088010020FEE700002DE9F04176
:101C20000C46234E051E4FF480514FF4005709DD3A
:101C300001223046FEF708FD002239463046FEF705
:101C400003FD09E000223046FEF7FEFC0122394682
:101C50003046FEF7F9FC6D424FF47A77BD4200DD65
:101C60003D46DFF85080D8F8000085634FF480418E
:101C70004D00002C09DD01223046FEF7E5FC002274
:101C800029463046FEF7E0FC09E000223046FEF728
:101C9000DBFC012229463046FEF7D6FC6442BC42FA
:101CA00000DD3C46D8F80000C463BDE8F0810000C8
:101CB000000C0140B0000020FEE77047084A13689E
:101CC0005B6A1BB25B420360064803685B6A1BB237
:101CD0000B60126800215162006841627047000089
:101CE000F8000020400100207047000070B5144645
:101CF000401AFEF7F3FA05462168FEF727FA0D4968
:101D00002060884202DC0C49884201D9216000E051
:101D100021680A4EB068FEF771FA044628467168D9
:101D2000FEF76CFA2146FEF711FABDE87040FEF7A7
:101D3000DEBA00000000FA440000FAC444000020AB
:101D4000FEF7B0BE30B58FB028216846FEF7F3F934
:101D500014210AA8FEF7EFF901210804CDE90010CB
:101D60000024029402250491CDE907504FF4E010BD
:101D700009906846FEF7FCFF08B172B6FEE70F2037
:101D8000CDE90A054FF48060CDE90C4002210AA894
:101D90000E94FEF711FF002801D072B6FEE70FB0D7
:101DA00030BD7047F0B50268194B1A4C1A4D4FF010
:101DB0008047984205D0B84203D0A04201D0A84243
:101DC00003D122F070064A683243984205D0B842E7
:101DD00003D0A04201D0A84203D122F44074CA68C3
:101DE00022434C6922F08002224302608A68C26268
:101DF0000A688262984201D1096901630121416147
:101E00000169C90703D0016921F001010161F0BD39
:101E1000002C0140000400400008004010B501F013
:101E20001F030121046A99408C430462016A9A40AD
:101E30001143016210BD000030B5036A026A22F04E
:101E4000010202624268846924F073050C682C4325
:101E500023F002058B682B430A4DA8420BD123F0D7
:101E60000805CB6822F440722B434D6923F004032C
:101E700015438A692A434260846149684163036269
:101E800030BD0000002C014030B5026A036A23F027
:101E900010030362436884690D6824F4E64444EA4D
:101EA00005248D6822F0200242EA05120B4DA8425B
:101EB0000ED1CD6822F0800242EA05124D6923F46A
:101EC000406343EA85038D6922F0400243EA8503BB
:101ED0004360846149688163026230BD002C014027
:101EE00030B5036A026A22F4807202624268C469F1
:101EF00023F4007324F073050C682C438D6843EAC7
:101F000005230C4DA8420ED1CD6823F4006343EAAB
:101F100005234D6922F4405242EA05128D6923F4EB
:101F2000806342EA05124260C4614968C16303628A
:101F300030BD0000002C014030B5046A026A22F472
:101F4000805202624268C3690D6823F4E64343EAA3
:101F500005238D6824F4005444EA0534064DA84254
:101F600004D14D6922F4804242EA85124260C36185
:101F700049680164046230BD002C014070B504461C
:101F800000680169E26821F440511143016121694F
:101F9000A0680843616908432168CA6841F20C637C
:101FA0009A430243CA6020684169A26921F44071E2
:101FB000114341611E492068884202D1FEF7A2FE0A
:101FC00001E0FEF78FFE00EBC00101EB001260683C
:101FD00064218000B2FBF0F3B3FBF1F36FF018065D
:101FE0007343B2FBF0F5B2FBF0F605EB8305322349
:101FF00003EB0515B5FBF1F5B6FBF1F605F0F005C1
:1020000005EB0615B2FBF0F6B2FBF0F0B0FBF1F019
:102010006FF01802504306EB800003EB0010B0FB9A
:10202000F1F0216800F00F002844886070BD0000C6
:1020300000380140FEE70000014A024900F023B8E1
:1020400035210008340000200907090E002804DBB0
:1020500000F1E02080F80014704700F00F0000F15C
:10206000E02080F8141D704702E008C8121F08C164
:10207000002AFAD170477047002001E001C1121F09
:10208000002AFBD170472DE9F04116460F46044661
:10209000002503E03946B047641C6D1C20780028F9
:1020A000F8D12846BDE8F0812DE9FF5F07460EA86C
:1020B0000E4690E8000FFF2015468DF80C00012118
:1020C00003A80A228DE807001C460B463022242173
:1020D0001748FEF789FB9DF80C00C00938709DF881
:1020E0000C00C0F3801030709DF80C00C0F340105D
:1020F00028709DF80C00C0F3001020709DF80C00B3
:10210000C0F3C00188F800109DF80C00C0F38001F6
:1021100089F800109DF80C00C0F340018AF8001007
:102120009DF80C0000F001018BF80010BDE8FF9F46
:102130005C00002004490A685206FCD5024AC1B27C
:10214000121D116070470000003801401FB5FEF7F6
:10215000B1FCFFF7F7FDFFF727FCFFF75DFCFFF78A
:102160003FFDFFF779FCFFF7CFFCFFF703FD0421EC
:102170005C48FFF7A7F908215A48FFF7A3F93C216B
:102180005948FFF789F83C215848FFF785F858A0CF
:10219000FFF752FF40F6B830FEF754F9DFF860A1C0
:1021A000DFF86091AAF10208DFF85CB1A8F104043D
:1021B000534D56466D1CAF1E2B1F5A1ECDE902A56E
:1021C000CDE90087511E481EFFF76EFF05F109019A
:1021D000081FFFF773FD2079E379A27961798DE813
:1021E0000F00E378A27861782078FFF7CAFBB0B3DC
:1021F000464900200860464908604FF49670014641
:10220000FFF70CFD4FF48270FEF71CF90021084621
:10221000FFF704FD2B1F5A1ECDE90265CDE90087AB
:10222000511E481EFFF740FFE078C0B12079B0B1E1
:1022300060786179084312D0A06800284DD03549F4
:10224000D1F10000FFF7EAFC4FF4AF70FEF7FAF8A7
:102250002E49002008602E490860C9F80000207946
:10226000E379A27961798DE80F00E378A27861784B
:102270002078FEF7A1F8CBF8000005464F46D9F8C4
:102280000010FDF7B5FF24490968FDF7B7FF0646C2
:10229000224829460068FDF7B1FF3146FDF756FF99
:1022A0003D60FEF724F81E49184A09684318081AC9
:1022B000C4E907301846E168FFF718FD6061144A69
:1022C0002169206AFFF712FD0146A0616069FFF7EE
:1022D000A5FC0A20FEF7B6F86AE74FF4967148426B
:1022E000B0E70000B0000020F8000020400100200E
:1022F00050656C6173652077616974210D0A000077
:10230000060000204400002040000020540000206F
:1023100058000020D4FEFFFF3C00002038000020C1
:1023200050000020010202030405060708090A0BF9
:102330000C0D0E0F10100000000000000000010244
:10234000030406070809000000000102030400005E
:1023500070230008000000205C00000068200008D6
:10236000CC2300085C0000207405000078200008E1
:10237000000000000000000001000000000000005C
:10238000000000000000000000000000000000004D
:10239000000000000100000010000000000000002C
:1023A00000127A00000000000000C04000009040D1
:1023B00000000000000000000000003F00000000DE
:0C23C0009600000000000000000000007B
:04000005080000ED02
:00000001FF
