:020000040800F2
:1000000090070020B5010008791A0008BD16000805
:10001000B919000871020008BD1C000800000000AA
:10002000000000000000000000000000811A00082D
:1000300075020008000000007D1A0008851A0008FB
:10004000CF010008CF010008CF010008CF01000850
:10005000CF010008CF010008CF010008CF01000840
:10006000CF010008CF010008CF010008CF01000830
:10007000CF010008CF010008CF010008CF01000820
:10008000CF010008CF010008CF010008CF01000810
:10009000CF010008CF010008CF010008CF01000800
:1000A000CF010008CF010008CF010008CF010008F0
:1000B000CF010008CF010008CF010008CF010008E0
:1000C000CF010008CF010008CF010008CF010008D0
:1000D000CF010008CF010008CF010008CF010008C0
:1000E000CF010008CF010008CF01000800F002F89E
:1000F00000F050F814A696E8000CB244B344DA4578
:1001000001D100F047F8BAE80F000FA696E83000DA
:10011000A5EB040504EB0607AAEB0704A7F101070A
:100120004FEA15154FEA3414A4F10104AC4201D38F
:1001300000F030F813F0010F18BFFB1A43F0010371
:1001400000F001F8DBE71847082600002826000029
:10015000103A24BF78C878C1FAD8520724BF30C8F3
:1001600030C144BF04680C60704700007047000055
:100170000023002400250026103A28BF78C1FBD8B0
:10018000520728BF30C148BF0B6070471FB51FBD65
:1001900010B510BD00F031F81146FFF7F7FF01F080
:1001A0008FFD00F04FF803B4FFF7F2FF03BC00F03F
:1001B00057F800000948804709480047FEE7FEE776
:1001C000FEE7FEE7FEE7FEE7FEE7FEE7FEE7FEE707
:1001D00004480549054A064B70470000891A000883
:1001E000ED000008900100209007002090030020FF
:1001F00090030020704770477047754600F02CF858
:10020000AE4605006946534620F00700854618B003
:1002100020B5FFF7DDFFBDE820404FF000064FF0AE
:1002200000074FF000084FF0000BAC46ACE8C009E7
:10023000ACE8C009ACE8C009ACE8C00921F007018E
:100240008D46704710B50446AFF300802046BDE8E8
:100250001040FFF7A8BF00000048704710000020C2
:1002600001491820ABBEFEE72600020070470000DF
:10027000FEE7000070470000EFF3108072B600BF89
:10028000FEE70000B0B5044600F02CF9054640F248
:100290000000C2F200000078611C18BF044400BFD7
:1002A00000F020F9401BA042FAD3B0BD2DE9F04F79
:1002B00082B00E68002E00F0FD8041F20042C4F2D0
:1002C0000102042340F2004E904208BF03234FF680
:1002D000FF7CC4F2010E009300240123C1F2100C34
:1002E0004FF0000A4FF0000944E000BF012704F07E
:1002F0000C030F229A402BEA020207FA03F34FEA9B
:100300009A051A4346F825204E6840F20C45F20241
:10031000DEF8082054BF22EA080242EA0802C4F2CA
:100320000105CEF808202A68B30254BF22EA080269
:1003300042EA08022A60B303DEF8042054BF22EA2E
:10034000080242EA0802F303CEF80420DEF8002097
:100350004FF0010354BF22EA080242EA0802CEF835
:1003600000200E680AF1010A36FA0AF204F10404C8
:1003700000F0A08003FA0AFB16EA0B08F1D04E68E1
:10038000664511DC122E55D8DFE806F0340A4448E1
:10039000545454545454545454545454544C50007D
:1003A000D1F80C9046E000BF4FF6FF72C1F2210277
:1003B00096420FDC0022C1F2110296421AD00022AE
:1003C000C1F21202964215D00022C1F221029642D9
:1003D00010D02FE00022C1F2220296420AD0002261
:1003E000C1F23102964205D00022C1F23202964299
:1003F00020D100BF8A684AB1012A14BFC0F814B0E6
:10040000C0F810B04FF0080914E000BF4FF0040925
:1004100010E000BFCA6802F108090BE04FF00009C4
:1004200008E000BFCA6802F1040903E0CA6802F1EB
:100430000C0900BF22460646B8F5807F24BF203A4B
:10044000043637680F25954027EA050509FA02F2B8
:100450002A433260CA79D2067FF583AF41F218038E
:10046000C4F202031A68AEF57E7642F001021A6009
:100470001A6802F001020192019A2AF0030256F86A
:1004800002B040F60002C4F20102904210D040F6E1
:100490000042C4F2010290423FF428AF41F2000250
:1004A000C4F20102009F904208BF02271FE700BF6D
:1004B00000271CE702B0BDE8F08F0000806808400C
:1004C00018BF012070470000C26802EA010391438F
:1004D00041EA034101617047002A08BF0904016134
:1004E0007047000040F28810C2F2000000687047B8
:1004F00040F2000040F28811C2F20000C2F2000196
:1005000000780A68104408607047000080B542F225
:100510000000C4F20200016841F0100101600320F4
:1005200000F07AF80F2000F005F800F027F800201E
:1005300080BD000070B540F20006C2F2000640F235
:1005400008013278C2F200014FF47A730968B3FBF4
:10055000F2F20446B1FBF2F1084600F04FFB0F2C1B
:100560004FF0010508D838B94FF0FF30214600227E
:10057000002500F025F87460284670BD82B041F275
:100580001800C4F202000168022241F0010101607A
:10059000016801F0010101910199416841F0805128
:1005A0004160406800F08050009000980420C4F240
:1005B0000100016862F31A61016002B07047000037
:1005C00010B54EF60C5CCEF2000CDCF80030C3F334
:1005D000022E8EF00704042C28BF0424BEF103036E
:1005E0004FF0FF3E0EFA04F438BF0023A1439940B8
:1005F0000EFA03F39A43114300F00F0200F1604337
:100600000901043A03F564436244002848BF02F13B
:100610000C03197010BD00004EF60C51CEF2000113
:100620000A684FF6FF031A4060F30A2242F0806026
:1006300040F0FD7008607047002804BF012070473B
:100640002DE9F04381B042F20008C4F202080446EA
:10065000D8F800000D4600F0070088420CD2D8F808
:10066000000020F007002843C8F80000D8F8000078
:1006700000F00700A8426CD1206841F2040981070C
:10068000C4F2020917D5410705D5D9F8001041F485
:10069000E061C9F80010010705D5D9F8001041F450
:1006A0006051C9F80010D9F80010A26821F0F001DB
:1006B0001143C9F80010C00742D1D8F8000000F07B
:1006C0000700A8420CD9D8F8000020F00700284302
:1006D000C8F80000D8F8000000F00700A84238D1A0
:1006E0002068410707D5D9F80010E26821F4E061DD
:1006F0001143C9F80010000708D5D9F80000216996
:1007000020F4605040EAC100C9F80000D9F8002088
:1007100002F00C00082841F20020C0F27A0051D10A
:1007200042F24073C2F38341C0F60003595CD20326
:100730003CD440F60010C0F23D00484342E000BF08
:10074000606802280AD001282AD159F8041C8903BC
:1007500008D4012001B0BDE8F08300BF59F8041CA3
:100760008901F6D5D9F8001021F003010843C9F832
:100770000000FFF7B7FE064641F28837D9F80000BF
:10078000616800F00C00B0EB810F96D0FFF7AAFE75
:10079000801BB842F2D9032001B0BDE8F08300BF4E
:1007A00059F8041C8907D4D5DCE700BFD9F800202C
:1007B00042F23E73C2F34042C0F600039A5C4843E3
:1007C000B0FBF2F0D9F8001042F22E72C1F303111F
:1007D000C0F60002515C40F2080220FA01F140F23A
:1007E0000400C2F200000068C2F200021160FFF7CC
:1007F000A1FE002001B0BDE8F0830000002804BF86
:10080000012070472DE9F04182B00446007841F2A2
:100810000006C007C4F202060CD0706800F00C009D
:10082000042840F081803068800303D56068002888
:1008300000F04E81207880071BD5706810F00C0FF7
:1008400009D0706800F00C00082840F08B807068B8
:10085000C00300F187803068800703D52069012834
:1008600040F036813068616920F0F80040EAC1004C
:1008700030602078000713D4207840072CD4E56935
:10088000002D00F02081706800F00C00082840F076
:10089000AF80012D40F00C81012002B0BDE8F08155
:1008A000A069002800F08C800020C4F242200121C1
:1008B000C0F88014FFF716FE054600BF706A800777
:1008C00000F1BA80FFF70EFE401B0228F6D9032084
:1008D00002B0BDE8F08100BFF0695FEAC00808D44B
:1008E000F06940F08050F061F06900F080500090B5
:1008F000009847F20007C4F200073868C0054DD4DD
:10090000386840F480703860FFF7ECFD054600BFA2
:100910003868C00542D4FFF7E5FD401B6428F7D9CD
:10092000032002B0BDE8F081706800F00C000828D8
:1009300003D17068C0033FF576AF6068002800F00F
:100940000981B0F5A02F00F01D81B0F5803F00F0C7
:100950001D81306820F480303060306820F48020C1
:1009600017E100BF2069002840F20000C4F24220D5
:1009700000F08C8001210160FFF7B4FD054600BF47
:10098000306880073FF56EAFFFF7ACFD401B0228D3
:10099000F6D9032002B0BDE8F08100BFE06800286E
:1009A00000F09A80052800F0B180012800F0B280A4
:1009B000306A20F001003062306A20F00400ACE0C0
:1009C0000020C4F242200021C0F88014FFF78AFD05
:1009D000054600BF706A80077FF54EAFFFF782FDC6
:1009E000401B0228F6D9032002B0BDE8F08100BF09
:1009F0000027C4F2422700203866FFF773FD022D5E
:100A000005460DD13068800140F1D680FFF76AFDC0
:100A1000401B02284FF00300F4D902B0BDE8F0817A
:100A2000306880014FD5FFF75DFD401B02284FF075
:100A30000300F5D9F1E700BF40F20800C2F2000060
:100A4000006844F6D351C1F26201A0FB0101480ADB
:100A5000019000BF00BF0198411E002801913FF4A2
:100A60000BAF00BF0198411E002801913FF404AF75
:100A700000BF0198411E002801913FF4FDAE00BF68
:100A80000198411E00280191E4D1F5E600210160A2
:100A9000FFF728FD054600BF306880077FF5E9AE07
:100AA000FFF720FD401B02284FF00300F4D9B4E704
:100AB0007068216A00F480328A4209D1616A00F4C8
:100AC0007010884204D1002002B0BDE8F08100BF60
:100AD000012002B0BDE8F081306A20F001003062F0
:100AE000306A20F004003062FFF7FCFC054641F25A
:100AF000883700BF306A800722D5FFF7F3FC401B20
:100B0000B8424FF00300F5D987E700BF306A40F0E4
:100B100004003062306A40F001003062FFF7E2FC0E
:100B2000054641F2883700BF306A800708D4FFF7D6
:100B3000D9FC401BB842F7D9032002B0BDE8F081D0
:100B4000B8F1000F3FF59BAEF06920F08050F061E6
:100B500095E600BF306820F480303060306820F4C3
:100B600080203060FFF7BEFC054600BF3068800380
:100B70007FF560AEFFF7B6FC401B64284FF0030022
:100B8000F4D94AE7306840F480203060306840F49F
:100B900080303060FFF7A6FC054600BF3068800358
:100BA0003FF548AEFFF79EFC401B6428F6D90320B2
:100BB00002B0BDE8F08100BF206AB0F5803F05D1EA
:100BC0007168A26821F40031114371607168626A32
:100BD00021F4741111430843706001203866FFF757
:100BE00081FC0446306880013FF56DAFFFF77AFC69
:100BF000001B02284FF00300F4D90EE7411E00202D
:100C0000B0EB116F1CBF012070474EF21002CEF204
:100C1000000251604EF62351CEF20001F0230B701A
:100C2000072190601160704790F83C20012A04BFB2
:100C300002207047B0B501F108053CCDD1E900CEE6
:100C400023F47C5322F470521A432EF4F0431A43D7
:100C50002CF4E0431A4324F4C0431A432A43C969DD
:100C600022F48042036811435964002180F83C104B
:100C7000BDE8B0400846704790F83C20012A4FF08C
:100C8000020236D010B580F83D200268D2F804E0A8
:100C9000D2F808C00C682EF07003234340F2FF74B2
:100CA000C4F20004A24253600ADCB2F1804F13D0B8
:100CB00040F20043C4F200039A420DD011E000BF9D
:100CC00042F60043C4F201039A4205D040F6000305
:100CD000C4F200039A4204D149682CF080031943FE
:100CE00091600121002280F83D1080F83C20BDE891
:100CF0001040104670470000002804BF01207047D4
:100D000010B5044690F83D0028B9002084F83C0056
:100D1000204600F06FF8022084F83D00206840F281
:100D2000FF730268C4F2000342F6004C9842C4F21A
:100D3000010C15DCB0F1804F1AD040F20041C4F232
:100D40000001884214D0984218DCB0F1804F1DD0C9
:100D500040F20041C4F20001884217D01AE000BFFF
:100D6000604505D040F60001C4F200018842EAD196
:100D7000A16822F070020A439842E6DD604505D082
:100D800040F60001C4F20001884203D1216922F437
:100D900040720A43A36922F08001D4F804E0E268BB
:100DA000194360450160C262C0F828E002D1616960
:100DB000CCF83010012141610269D20703D00269E9
:100DC00022F001020261002084F8461084F83E10EF
:100DD00084F83F1084F8401084F8411084F84210E1
:100DE00084F8431084F8441084F8451084F83D10CA
:100DF00010BD0000006842F60041C4F201018842C3
:100E000018BF704781B041F21800C4F202000168B7
:100E100041F400610160006800F4006000900098F7
:100E200001B0704790F83C20012A4FF0020200F018
:100E3000C58080B580F83D20D0F800C04FF67772AD
:100E4000DCF8083023EA0202CCF808200B684F2BAC
:100E500028DC1F2B44DD202B45D0302B43D0402BEA
:100E600040F0AE80D1F804E0C968DCF82030DCF84E
:100E7000202022F00102CCF82020DCF8182022F0FB
:100E8000F00242EA011123F00A0242EA0E02CCF813
:100E90001810CCF82020DCF8081041F0470121F0B0
:100EA000300180E06F2B27DDB3F5005F48D0B3F54C
:100EB000805F7AD0702B40F08380D1E901E3C9686C
:100EC000DCF8082043EA0E0322F47F4243EA0121C2
:100ED0001143CCF80810DCF8081041F0770162E00B
:100EE0000BB1102B6CD1DCF8081021F07001194304
:100EF00041F0070157E000BF502B35D0602B5FD188
:100F0000D1F804E0C968DCF82030DCF8202022F0B9
:100F10001002CCF82020DCF8182022F4704242EABB
:100F2000013123F0A00242EA0E12CCF81810CCF8DE
:100F30002020DCF8081041F0670121F0100132E0B8
:100F4000D1E901E3C968DCF8082043EA0E0322F482
:100F50007F4243EA01211143CCF80810DCF8081065
:100F600041F480411FE000BFD1F804E0C968DCF81B
:100F70002030DCF8202022F00102CCF82020DCF820
:100F8000182022F0F00242EA011123F00A0242EA9C
:100F90000E02CCF81810CCF82020DCF8081041F034
:100FA000570121F02001CCF808100022012180F81F
:100FB0003D10002180F83C10BDE88040104670478D
:100FC0000122F3E7002804BF012070472DE9F04F0C
:100FD00081B0044690F83D000D4628B9002084F801
:100FE0003C00204600F09AF8022084F83D0020687A
:100FF00044F20702816840F2FF7391438160026806
:10100000C4F2000342F6004C9842C4F2010C15DC15
:10101000B0F1804F1AD040F20041C4F20001884282
:1010200014D0984218DCB0F1804F1DD040F200413E
:10103000C4F20001884217D01AE000BF604505D015
:1010400040F60001C4F200018842EAD1A16822F012
:1010500070020A439842E6DD604505D040F6000183
:10106000C4F20001884203D1216922F440720A438C
:10107000A36922F08001D4F804E0E26819436045D6
:101080000160C262C0F828E002D16169CCF830107A
:101090004FF0010EC0F814E00269D20703D00269D4
:1010A00022F00102026182688369D0F820C0D5E98C
:1010B0000018D5E9027B41EA020AAA694FF6FF79D6
:1010C00023EA090347EA02224FF6FC47BA43D5E96F
:1010D000077643EA0B0329691A4342EA072242EAE8
:1010E00001112CF022026B6942EA080241EA063142
:1010F00042EA0312C0F808A08161026284F846E067
:1011000084F83EE084F83FE084F842E084F843E06D
:1011100084F83DE0002001B0BDE8F08FB0B586B0A6
:10112000006840F20042C4F20002002190420591A2
:10113000CDE9031102913DD0B0F1804F6FD141F262
:101140001800C4F20200416840F2001441F00101AD
:1011500041604168002501F0010101910199016898
:10116000C0F2007441F004010160016801F0040163
:1011700001910199016841F008010160006802A92C
:1011800000F00800019001984FF40040029040F6F2
:101190000000C4F20100CDE90355FFF787F80820ED
:1011A000CDE902054FF2FF30CFF6FF0000F51065E4
:1011B00023E000BF41F21800C4F2020042684FF27F
:1011C000FF3542F0020242604268CFF6FF0502F0AE
:1011D00002020192019A026842F00802026000686D
:1011E00000F00800019001983020CDE9020140F2A2
:1011F0000010C0F2007000F5E06440F60000C4F298
:1012000001000021049100F5806002A9FFF74EF86B
:101210000420C4F20100016829402143016006B0A6
:10122000B0BD000080B590F83E2090F83F3090F8B7
:1012300042E090F843C004290AD0B9B9012A4FF01E
:10124000010208BFBEF1010F34D0104680BD00BFBF
:10125000012B4FF0010208BFBCF1010FF5D10221B3
:1012600080F83F1080F8431000681EE0012A4FF01C
:10127000010208BF012BE8D1BEF1010FE5D1BCF19D
:10128000010FE2D1022280F83E2080F83F2080F852
:10129000422080F8432091B10068016A21F00101E9
:1012A0000162016A41F00101016210216FF0100238
:1012B00009E000BF022180F83E1080F8421000686B
:1012C00001216FF00102036A1A400262026A1143AF
:1012D00001620168002241F001010160104680BDF9
:1012E00090F83C30012B04BF022070474FEAB20255
:1012F000032A3DD82DE9F043DFE802F002407CB636
:10130000036842F600461D6A1A6AC4F2010622F01A
:1013100001021A621A465C6852F818CFB3428E680E
:10132000D1F800E025F0020545EA06050CD1CE68AB
:10133000D1E9057824F4407425F00C0526F0040664
:101340003C43354344EA08042CF0730747EA0E0790
:101350005C609F614F6809695F631D629F6947F028
:1013600008079F619F6927F004079F61ACE000BFF9
:101370000121002280F83C2008467047036842F6AD
:1013800000461D6A1A6AC4F2010622F010021A62AF
:101390001A46D3F804C052F8184FB3428E68D1F8F9
:1013A00000E025F0200545EA06150FD1CE68D1E909
:1013B00005986FF0400725F0C00507EA061635438B
:1013C0002CF4406748EA090647EA860C24F4E64410
:1013D00044EA0E27C3F804C09F614F6809699F6300
:1013E0001D629F6947F400679F619F6927F48067CA
:1013F0009F6168E0036842F600461D6A1A6AC4F2FB
:10140000010622F480721A621A46D3F804C052F818
:101410001CEFB3428E680C6825F4007545EA06257A
:101420000FD1CE68D1E90598360240F2FF4725F486
:101430004065BE4335432CF4405748EA090647EA65
:10144000061C2EF073072743C3F804C0DF614F6802
:101450000969DF631D62DF6947F00807DF61DF6943
:1014600027F00407DF612FE0036842F60047D3F856
:1014700020C01A6AC4F2010722F480521A621A4686
:101480005C6852F81C5FD1F800E08E68BB4204D162
:101490004F6924F4804444EA87142CF4005747EA47
:1014A000063725F4E64646EA0E265C60DE614E68A5
:1014B00009691E641F62DF6947F40067DF61DF6945
:1014C00027F48067DF610902136819431160002166
:1014D000BDE8F043002280F83C2008467047000039
:1014E000002804BF0120704710B5044690F83D0065
:1014F00028B9002084F83C00204600F06FF8022054
:1015000084F83D00206840F2FF730268C4F20003D3
:1015100042F6004C9842C4F2010C15DCB0F1804F49
:101520001AD040F20041C4F20001884214D098421F
:1015300018DCB0F1804F1DD040F20041C4F2000130
:10154000884217D01AE000BF604505D040F6000180
:10155000C4F200018842EAD1A16822F070020A4375
:101560009842E6DD604505D040F60001C4F2000176
:10157000884203D1216922F440720A43A36922F010
:101580008001D4F804E0E268194360450160C2625A
:10159000C0F828E002D16169CCF830100121416126
:1015A0000269D20703D0026922F001020261002021
:1015B00084F8461084F83E1084F83F1084F84010F8
:1015C00084F8411084F8421084F8431084F84410E1
:1015D00084F8451084F83D1010BD000070470000ED
:1015E00041B1082910D0042914BF00F1410200F1D3
:1015F0003F020BE090F83E20012A1CBF01207047FB
:10160000022280F83E2013E000F140021278012A05
:101610001CBF012070470222082907D0042914BFEB
:1016200080F8412080F83F2002E000BF80F8402091
:10163000006801F01F010122036A8A4023EA0201C7
:101640000162036A42F64441C4F201011A43A1F166
:101650004403984202620FD040F2FF71C4F20001CD
:10166000884213DCB0F1804F1CD040F20041C4F23C
:101670000001884216D01AE00A6842F400420A606B
:1016800040F2FF71C4F200018842EBDD42F60041F6
:10169000C4F20101884205D040F60001C4F2000105
:1016A000884204D1816801F00701062903D001684E
:1016B00041F001010160002070470000FEE70000DA
:1016C0002DE9F04385B041F21800C4F20200016830
:1016D00040F6004441F0100101600168C4F20104C9
:1016E00001F0100101910199016804F5806541F054
:1016F000200101600168012201F02001019101999E
:1017000001684FF4005641F00401016001684FF098
:10171000010801F0040101910199016841F00801FB
:10172000016000684FF4005100F00800019001983A
:101730002846FEF7D1FE204640F6034100224FF036
:101740000009FEF7C9FE20464FF480510122FEF742
:10175000C3FE01A880E8400301AE022728463146B7
:101760000497FEF7A3FDFF20CDE90109A4F58060F1
:1017700031460397FEF79AFD41F6034001A981E83F
:101780000103204631460497FEF790FD05B0BDE801
:10179000F083000070B59CB042F6004540F2B00006
:1017A000C4F201050021C2F20000472240F2E733F3
:1017B00080261691CDE914111191CDE90F11CDE9D3
:1017C0000D11CDE90B11CDE90911CDE90711CDE9D5
:1017D0000511CDE90311CDE90111C0E90052C0E9BD
:1017E0000213C0E904118661FFF786FA002818BFCA
:1017F000FEF742FD4FF48050139040F2B000C2F269
:10180000000013A9FFF70EFB002818BFFEF734FDF8
:1018100040F2B000C2F20000FFF762FE002818BFDD
:10182000FEF72AFD40F2B0000024C2F2000010A929
:10183000CDE91044FFF720FA002818BFFEF71CFD81
:101840006020CDE9090440F2B000C2F2000009A90D
:101850000022CDE90B44CDE90D440F94FFF740FD84
:10186000002818BFFEF708FD40F2B000C2F20000E9
:1018700009A90422FFF734FD002818BFFEF7FCFC7D
:1018800040F2B0044FF40050C2F20004002606906B
:1018900001A920460596CDE90366CDE901660896C3
:1018A000FFF7C2F9002818BFFEF7E6FC20681A9679
:1018B000A84201D01CB070BD41F21800C4F2020071
:1018C000016841F004010160006818A900F00400FB
:1018D000179017984FF440701890022019901B90A1
:1018E000A5F51050FEF7E2FC1CB070BD80B58CB0C1
:1018F00040F2F8000021C2F200004FF08042C0E93F
:10190000002103224FF6FF73CDE903210122CDE927
:101910000011C0E9021301618161CDE90521CDE922
:101920000711CDE909210B9103A9FFF74BFB002813
:1019300018BFFEF7A1FC40F2F800C2F200006946B1
:10194000FFF79AF9002818BFFEF796FC0CB080BD8F
:1019500080B58CB040F2401040F200420021C2F24B
:101960000000C4F20002C0E9002103224FF6FF7319
:10197000CDE903210122CDE90011C0E90213016183
:101980008161CDE90521CDE90711CDE909210B914F
:1019900003A9FFF717FB002818BFFEF76DFC40F204
:1019A0004010C2F200006946FFF766F9002818BF30
:1019B000FEF762FC0CB080BDFEE7000070B540F69B
:1019C0000046C4F201060C460546002830464FF496
:1019D000806115D40122FEF77FFD30464FF400618F
:1019E0000022FEF779FD30460121002C16D4012299
:1019F000FEF772FD304602210022FEF76DFD16E073
:101A00000022FEF769FD30464FF400610122FEF727
:101A100063FD6D4230460121002CE8D50022FEF71F
:101A20005BFD304602210122FEF756FD644228B2DA
:101A300040F2E735A842A8BF284686B220B2A842A5
:101A4000A8BF284680B200F0B5FC45F2EC11C3F601
:101A5000787100F02BFD00F079FC40F2B001C2F289
:101A600000010968AE4228BF2E46A84238BF05468D
:101A70004E638D6370BD0000FEE7000070470000FC
:101A800070470000FEF734BD70470000B0B540F667
:101A90000044C4F20104FEF725FD40F27005C2F2D5
:101AA0000005E96A401A652808D3FEF71BFDE862C5
:101AB00004F580604FF40051FEF706FD687828BBFE
:101AC00001206870FEF70EFD686320464FF48061C8
:101AD0000122FEF701FD20464FF400610022FEF7CF
:101AE000FBFC204601210122FEF7F6FC20460221E4
:101AF0000022FEF7F1FC40F2B000C2F200000068E4
:101B000040F2E731416340F2C9318163FEF7EAFCFC
:101B1000696B401A42F21171884238BFB0BDFEF7BE
:101B2000E1FC04F58064686320464FF40051012213
:101B3000FEF7D2FC4FF4FA70FEF7A4FB20464FF4F8
:101B400000510022BDE8B040FEF7C6BC2DE9F041CF
:101B500040F27008C2F2000898F8380098F839206E
:101B60000138B0FA80F54FF000004FF0010198F80D
:101B70003A3098F83B7008BF6FF0450008BF02216B
:101B8000012A0CBF32386909012B04BF1E3801310C
:101B9000012F08BF0A3898F83C2008BF0131012AFC
:101BA00008BF0A3098F83D2008BF0131012A08BF5C
:101BB0001E3098F83E2008BF0131012A08BF32309C
:101BC00098F83F2008BF0131012A03D14630013186
:101BD00002E000BF0A0607D000B2C9B290FBF1F1E3
:101BE000B8F8040003E000BFB8F804000146B8F9F3
:101BF00006300AB2C2EBC20203EB43031A4446F2B8
:101C00006763C6F2666382FB0323A8F8021099108B
:101C100001EBD3774FF6FF71C0F2040101EB0742ED
:101C200001F5A021A8F806708A4238BF00273CB20F
:101C30003E1A2046A8F80860A8F8047000F0A2FB3D
:101C40000021C4F2901100F031FC0021C4F22011F7
:101C500000F086FA054630B200F094FB0021C4F291
:101C6000701100F023FC294600F0E2F900F06EFB51
:101C7000024687EAE430A0EBE43000B25021282885
:101C8000B8BF69210F28B8BF7321881A00B2114468
:101C90000BB23C213C28D8BF08463C2BC8BF194694
:101CA00040F2E733984228BF1846994228BF1946A8
:101CB000A8F80A20BDE8F041FFF780BEFEE700006B
:101CC00090B0FEF723FC00240120CDE90B44CDE9C0
:101CD000094406900A904FF4E0104FF48031022539
:101CE0000F9006A8CDE90714CDE90D51FEF786FD4A
:101CF00020B1EFF3108072B6FEE700BF0F20CDE9F0
:101D000001054FF48060CDE9040401A80221039489
:101D1000FEF792FC20B1EFF3108072B6FEE700BF31
:101D200041F20008C4F20108FFF7CAFCFFF7DEFD2C
:101D3000FFF70EFEFFF72EFD40F2B004C2F20004E2
:101D4000204600210026FFF74BFC20460421FFF728
:101D500047FCA8F5806528464FF480510122FEF724
:101D6000BBFB28464FF480610022FEF7B5FB2846F6
:101D70004FF400610022FEF7AFFB2846012100224C
:101D8000FEF7AAFB284602210022FEF7A5FB2068E9
:101D900040F2F805C2F200054663866328463C21FE
:101DA000FFF740FA40F24017C2F2000738463C21E4
:101DB000FFF738FA28684662386846622068C46AC5
:101DC000B4F57A7F23D340464FF40051FEF77CFBF5
:101DD0006420FEF757FA40464FF40051FEF774FBBB
:101DE0006420FEF74FFA40464FF40051FEF76CFBBB
:101DF0006420FEF747FA40464FF40051FEF764FBBB
:101E00006420FEF73FFA42F2107084420FD340463E
:101E10004FF40051FEF758FB6420FEF733FA4046BA
:101E20004FF40051FEF750FB6420FEF72BFA4046BA
:101E30004FF40051FEF748FBC820FEF723FA404656
:101E40004FF40051FEF740FBC820FEF71BFA404656
:101E50004FF40051FEF738FBC820FEF713FA404656
:101E60004FF40051FEF730FBC820FEF70BFA404656
:101E70004FF40051FEF728FBC820FEF703FA404656
:101E80004FF40051FEF720FBC820FEF7FBF94FF49A
:101E9000FA70FEF7F7F940F2700BC2F2000B002067
:101EA0008BF80000FEF71EFB474647F68E4A804639
:101EB000A7F50066C4F2523A03E000BF0520FEF722
:101EC000E1F9FEF70FFB0746A0EB0800642845D3B5
:101ED00000F070FA0021C4F27A4100F041F940F2BA
:101EE000F801C2F20001096840F24012C2F2000299
:101EF000496A12680446506A0FFA81F905B2204611
:101F0000002100F013F920BBDBE90501A9EB00007B
:101F1000A5EB010800F036FA514600F0C7FA00219F
:101F2000C4F2824100F01CF9214600F019F9CBF807
:101F30001C00404600F026FA514600F0B7FA002196
:101F4000C4F2824100F00CF9214600F009F9CBF807
:101F50002000B846CBE90395CBE905959BF8000036
:101F600030B1FFF793FD3220FEF78CF9A9E700BFEF
:101F700030460121FEF7A2FA013818BF01208BF884
:101F8000380030460221FEF799FA013818BF0120C7
:101F90008BF8390030460421FEF790FA013818BF5B
:101FA00001208BF83A0030460821FEF787FA013805
:101FB00018BF01208BF83B0030461021FEF77EFA57
:101FC000013818BF01208BF83C0030462021FEF775
:101FD00075FA013818BF01208BF83D0030464021CA
:101FE000FEF76CFA013818BF01208BF83E0030462E
:101FF0008021FEF763FA013818BF01208BF83F00FB
:10200000FFF7A4FDFEF76EFADBF83010401AB0F5CA
:10201000FA7F7FF653AFFEF765FACBF8300041F256
:102020000000C4F201004FF40051FEF74DFA45E7FD
:1020300090EA010F48BF81F0004100F10A83421A83
:102040003CBF801A89184FEAD052A2EBD1534FF00F
:102050007F4C1CEA410F18BF9CEA026F00F03B80E6
:102060004FF0004C4CEA00204CEA012121FA03FC1D
:1020700010EB0C0C1ED202F1FF325FEA1C2040EB89
:10208000C25038BF70471CF07F0F4FEA400C18BF9A
:10209000BCF17F4F38BF7047C3F12003994008BFA0
:1020A00020F00100BCF17F4F38BF7047A0F1C04065
:1020B00000F0C3BA4FEA3C00000A40EBC25028BF10
:1020C0001CF0FF0F4FEA400CE6D018BFBCF17F4F69
:1020D00038BF7047EAE79CEA026F05D010EA5C0F50
:1020E00008BF00F00040704710B500F060FA00BF74
:1020F00064FBBE3E10B500F0F5F80CBF01200020D7
:1021000010BD10B500F0EEF814BF0120002010BD86
:1021100010B500F063F98CBF0120002010BD10B590
:1021200000F05CF92CBF0120002010BD10B500F0BC
:1021300089F994BF0120002010BD10B500F082F98C
:1021400034BF0120002010BD401058BFC0F14040F6
:10215000491058BFC1F140418142EFF30080704700
:102160004FF47F0C1CEAD0121EBF1CEAD11392EA76
:102170000C0F93EA0C0F00F0858090EA010F48BF26
:1021800042F4807240F4000C41F400002CF07F41D6
:1021900020F07F4000B5A2EB030281420FF2081C41
:1021A000ACEB504E9EF800E0C0F100004FEA4E0E3E
:1021B00000FB0EFC38BF49004FEA2C1C0CFB0EF351
:1021C0004FEACE1E0EEB635E4FEA112C0EFB0CFCA9
:1021D0004FEAC1214FEA1C5300FB031102F5FA023A
:1021E0004FEA112C0EFB0CFC4FEA01314FEADC4C9C
:1021F00000FB0C1142EB2242C14228BF09184CEBF4
:1022000003335DF804EB10EB410143EBC250B2F530
:102210007C0F38BF704729D512F0F00F1CBF00F1BA
:10222000C04000F00040704700818283848586872B
:1022300088898B8C8D8E8F919293959697999A9C85
:102240009D9FA0A2A3A5A7A8AAACAEB0B2B3B5B7F4
:10225000B9BCBEC0C2C5C7C9CCCED1D4D7D9DCDFCA
:10226000E2E6E9ECF0F3F7FAFE0000004FEA400C7A
:102270000CF1807CBCF17E4F28BF7047B0F1C040AC
:1022800000F0DBB90CEAD11390EA010F48BF42F429
:102290008072624538BF634507D213F47F0F16D0B2
:1022A00080EA010000F00040704710B500F07FF9AF
:1022B000097EFC3E00F005B880EA010000F0004015
:1022C000704780EA010000F0004000F0B6B912F457
:1022D0007F0F04BF0248704780EA010000F0ADB9EB
:1022E0000000C07F50EA010C00F113801CF5000FC4
:1022F00058BFBCF5000F01D48842704707D710F5CE
:10230000000F58BF11F5000F15D48842704789425D
:1023100070471CF5000F04D5BCF5000FF7D58142BE
:1023200070474FF0807C1CEB400F38BF1CEB410F17
:1023300001D28142704710B500F039F9922449006A
:102340004FF000504FF08051FFF7FEBE41000B0EE2
:10235000D3F19E0208D950F400034FEA032323FA75
:1023600002F048BF4042704710B500F020F900BFAE
:1023700049922480002070476FF0004282EA2000DA
:102380007047000010F0004148BF4042B0FA80F3AF
:1023900010FA03F2C3F19D030BD051EAC35101EBD4
:1023A0001220530638BF704700F1010008BF20F02B
:1023B00001007047B0FA80F310FA03F2C3F19D03F5
:1023C0000AD0D90501EB1220530638BF704700F13F
:1023D000010008BF20F001007047000050EA010C26
:1023E00000F113801CF5000F58BFBCF5000F01D49D
:1023F0008842704707D710F5000F58BF11F5000F3E
:1024000015D488427047894270471CF5000F04D5E7
:10241000BCF5000FF7D5814270474FF0807C1CEB74
:10242000400F38BF1CEB410F01D28142704710B5FD
:1024300000F0BDF8922449004FF080504FF0005159
:10244000FFF782BE50EA010C00F113801CF5000F6B
:1024500058BFBCF5000F01D48842704707D710F56C
:10246000000F58BF11F5000F15D4884270478942FC
:1024700070471CF5000F04D5BCF5000FF7D581425D
:1024800070474FF0807C1CEB400F38BF1CEB410FB6
:1024900001D28142704710B500F089F892244900BA
:1024A0004FF000504FF08051FFF74EBE4FF47F0CBD
:1024B0001CEAD0121EBF1CEAD11392EA0C0F93EA59
:1024C0000C0F00F0478090EA010F48BF42F4807281
:1024D0004FF0004C4CEA00204CEA012102EB0302D1
:1024E000A0FB0113A2F50002002918BF43F001036D
:1024F0005B0028BF4FEA330342EB22425FEA132C12
:102500004CEBC2502EBFBCEB436FB2F57C0F704753
:102510004FEA036CBCF1004F08BF20F00100B2F598
:102520007C0F38BF70470BD582F0FF0212F5803F59
:10253000C8BF704700F1C040D8BF00F000407047EE
:1025400000F5000C5FEA4C0C48BF7047B0F1C0408A
:1025500000F073B80CEAD11390EA010F48BF42F4BF
:102560008072624538BF634504D280EA010000F002
:102570000040704710B500F01AF800BF8900013E16
:1025800000F007B800F009B85FEA410C5FEA1C6C84
:1025900008D080EA010000F050B85FEA400C5FEA22
:1025A0001C6CF6D14FF00040A0F5800070470EF192
:1025B000020E2EF0030E5EF8044B244204D44FEAC0
:1025C0004102B2F17F4F11D84FEA4003B3F17F4F80
:1025D0000CD80ED14FEAD07C0CEB4C0C0CF1020C59
:1025E000B2F17F4F08BF4CEBD17C04E04FF0080CF8
:1025F00001E04FEAD17C0CEB4C0324FA03F404F025
:102600000704B4F1040C06D20EEB840CBDE81040B4
:102610004CF0010C6047DFE80CF0070802024FF0B5
:102620000040A0F5800010BD0846420018BFD2F15E
:10263000807288BF00F0004010BDFF2141EAD050F9
:10264000C005704790EA010F48BF81F000413FF597
:10265000F6AC421A04D882F00042A0EB020011440A
:102660004FEAD052A2EBD1534FF07F4C1CEA410FFE
:1026700018BF9CEA026F4AD04FF0004C4CEA002091
:102680004CEA012121FA03FCB0EB0C0C0FD412F040
:10269000FE0F36D05FEA4C001DD5001240EBC25051
:1026A00038BF70471CF03F0F18BF70470BE05FEA60
:1026B0001C20A2F1010240EBC25038BF70471CF051
:1026C0007F0F18BF7047C3F12003994014BF401E0D
:1026D00020F0010070474FEA1223800808BF7047BE
:1026E000B0FA80FCA2EB0C02CCF1280C60FA0CF0E2
:1026F00093EA122F04BF00EBC25070474FEAC37039
:102700007047130A5FEADC1008BF7047F6E79CEADF
:10271000026F04D010EA5C0F08BF0020704710B5AC
:10272000FFF745FF40DFF63E81F0004070470000B4
:10273000000000000000010203040607080901026E
:1027400002030405060708090A0B0C0D0E0F1010F2
:102750007027000800000020100000005001000851
:10276000802700081000002080070000700100088A
:10277000010000001000000000127A0000000000BC
:04000005080000ED02
:00000001FF
